{"contracts/BinaryMarket.sol":{"BinaryMarket":{"abi":[{"inputs":[{"internalType":"address","name":"collateral_","type":"address"},{"internalType":"string","name":"question_","type":"string"},{"internalType":"uint256","name":"closeTime_","type":"uint256"},{"internalType":"address","name":"owner_","type":"address"}],"stateMutability":"nonpayable","type":"constructor"},{"inputs":[],"name":"AlreadyResolved","type":"error"},{"inputs":[],"name":"BadOutcome","type":"error"},{"inputs":[],"name":"InsufficientBalance","type":"error"},{"inputs":[],"name":"MarketClosed","type":"error"},{"inputs":[],"name":"NotEnoughLiquidity","type":"error"},{"inputs":[],"name":"NotResolved","type":"error"},{"inputs":[{"internalType":"address","name":"owner","type":"address"}],"name":"OwnableInvalidOwner","type":"error"},{"inputs":[{"internalType":"address","name":"account","type":"address"}],"name":"OwnableUnauthorizedAccount","type":"error"},{"inputs":[],"name":"ReentrancyGuardReentrantCall","type":"error"},{"inputs":[{"internalType":"address","name":"token","type":"address"}],"name":"SafeERC20FailedOperation","type":"error"},{"inputs":[],"name":"Slippage","type":"error"},{"anonymous":false,"inputs":[{"indexed":true,"internalType":"address","name":"provider","type":"address"},{"indexed":false,"internalType":"uint256","name":"collateralIn","type":"uint256"},{"indexed":false,"internalType":"uint256","name":"yesAdded","type":"uint256"},{"indexed":false,"internalType":"uint256","name":"noAdded","type":"uint256"}],"name":"LiquidityAdded","type":"event"},{"anonymous":false,"inputs":[{"indexed":true,"internalType":"address","name":"user","type":"address"},{"indexed":false,"internalType":"uint256","name":"sharesBurnedEach","type":"uint256"},{"indexed":false,"internalType":"uint256","name":"collateralOut","type":"uint256"}],"name":"Merge","type":"event"},{"anonymous":false,"inputs":[{"indexed":true,"internalType":"address","name":"previousOwner","type":"address"},{"indexed":true,"internalType":"address","name":"newOwner","type":"address"}],"name":"OwnershipTransferred","type":"event"},{"anonymous":false,"inputs":[{"indexed":true,"internalType":"address","name":"to","type":"address"},{"indexed":false,"internalType":"uint8","name":"winningOutcome","type":"uint8"},{"indexed":false,"internalType":"uint256","name":"sharesBurned","type":"uint256"},{"indexed":false,"internalType":"uint256","name":"collateralOut","type":"uint256"}],"name":"PoolRedeemed","type":"event"},{"anonymous":false,"inputs":[{"indexed":true,"internalType":"address","name":"user","type":"address"},{"indexed":false,"internalType":"uint8","name":"winningOutcome","type":"uint8"},{"indexed":false,"internalType":"uint256","name":"sharesBurned","type":"uint256"},{"indexed":false,"internalType":"uint256","name":"collateralOut","type":"uint256"}],"name":"Redeemed","type":"event"},{"anonymous":false,"inputs":[{"indexed":false,"internalType":"uint8","name":"winningOutcome","type":"uint8"}],"name":"Resolved","type":"event"},{"anonymous":false,"inputs":[{"indexed":true,"internalType":"address","name":"user","type":"address"},{"indexed":false,"internalType":"uint256","name":"collateralIn","type":"uint256"},{"indexed":false,"internalType":"uint256","name":"sharesMintedEach","type":"uint256"}],"name":"Split","type":"event"},{"anonymous":false,"inputs":[{"indexed":true,"internalType":"address","name":"user","type":"address"},{"indexed":true,"internalType":"uint8","name":"inOutcome","type":"uint8"},{"indexed":false,"internalType":"uint256","name":"amountIn","type":"uint256"},{"indexed":true,"internalType":"uint8","name":"outOutcome","type":"uint8"},{"indexed":false,"internalType":"uint256","name":"amountOut","type":"uint256"}],"name":"Swap","type":"event"},{"inputs":[],"name":"BPS","outputs":[{"internalType":"uint256","name":"","type":"uint256"}],"stateMutability":"view","type":"function"},{"inputs":[],"name":"FEE_BPS","outputs":[{"internalType":"uint256","name":"","type":"uint256"}],"stateMutability":"view","type":"function"},{"inputs":[],"name":"OUTCOME_NO","outputs":[{"internalType":"uint8","name":"","type":"uint8"}],"stateMutability":"view","type":"function"},{"inputs":[],"name":"OUTCOME_YES","outputs":[{"internalType":"uint8","name":"","type":"uint8"}],"stateMutability":"view","type":"function"},{"inputs":[{"internalType":"uint256","name":"collateralAmount","type":"uint256"}],"name":"addLiquidity","outputs":[],"stateMutability":"nonpayable","type":"function"},{"inputs":[{"internalType":"uint256","name":"collateralIn","type":"uint256"},{"internalType":"uint256","name":"minTotalNoOut","type":"uint256"}],"name":"buyNo","outputs":[{"internalType":"uint256","name":"totalNo","type":"uint256"}],"stateMutability":"nonpayable","type":"function"},{"inputs":[{"internalType":"uint256","name":"collateralIn","type":"uint256"},{"internalType":"uint256","name":"minTotalYesOut","type":"uint256"}],"name":"buyYes","outputs":[{"internalType":"uint256","name":"totalYes","type":"uint256"}],"stateMutability":"nonpayable","type":"function"},{"inputs":[],"name":"closeTime","outputs":[{"internalType":"uint256","name":"","type":"uint256"}],"stateMutability":"view","type":"function"},{"inputs":[],"name":"collateral","outputs":[{"internalType":"contract IERC20","name":"","type":"address"}],"stateMutability":"view","type":"function"},{"inputs":[],"name":"getSpotPriceNoE18","outputs":[{"internalType":"uint256","name":"","type":"uint256"}],"stateMutability":"view","type":"function"},{"inputs":[],"name":"getSpotPriceYesE18","outputs":[{"internalType":"uint256","name":"","type":"uint256"}],"stateMutability":"view","type":"function"},{"inputs":[{"internalType":"uint256","name":"amountEach","type":"uint256"}],"name":"merge","outputs":[],"stateMutability":"nonpayable","type":"function"},{"inputs":[{"internalType":"address","name":"","type":"address"}],"name":"noBalance","outputs":[{"internalType":"uint256","name":"","type":"uint256"}],"stateMutability":"view","type":"function"},{"inputs":[],"name":"noReserve","outputs":[{"internalType":"uint256","name":"","type":"uint256"}],"stateMutability":"view","type":"function"},{"inputs":[],"name":"owner","outputs":[{"internalType":"address","name":"","type":"address"}],"stateMutability":"view","type":"function"},{"inputs":[],"name":"question","outputs":[{"internalType":"string","name":"","type":"string"}],"stateMutability":"view","type":"function"},{"inputs":[],"name":"redeem","outputs":[],"stateMutability":"nonpayable","type":"function"},{"inputs":[{"internalType":"address","name":"to","type":"address"}],"name":"redeemPool","outputs":[],"stateMutability":"nonpayable","type":"function"},{"inputs":[],"name":"renounceOwnership","outputs":[],"stateMutability":"nonpayable","type":"function"},{"inputs":[{"internalType":"uint8","name":"outcome","type":"uint8"}],"name":"resolve","outputs":[],"stateMutability":"nonpayable","type":"function"},{"inputs":[],"name":"resolved","outputs":[{"internalType":"bool","name":"","type":"bool"}],"stateMutability":"view","type":"function"},{"inputs":[{"internalType":"uint256","name":"collateralAmount","type":"uint256"}],"name":"split","outputs":[],"stateMutability":"nonpayable","type":"function"},{"inputs":[{"internalType":"uint256","name":"noIn","type":"uint256"},{"internalType":"uint256","name":"minYesOut","type":"uint256"}],"name":"swapNoForYes","outputs":[{"internalType":"uint256","name":"yesOut","type":"uint256"}],"stateMutability":"nonpayable","type":"function"},{"inputs":[{"internalType":"uint256","name":"yesIn","type":"uint256"},{"internalType":"uint256","name":"minNoOut","type":"uint256"}],"name":"swapYesForNo","outputs":[{"internalType":"uint256","name":"noOut","type":"uint256"}],"stateMutability":"nonpayable","type":"function"},{"inputs":[{"internalType":"address","name":"newOwner","type":"address"}],"name":"transferOwnership","outputs":[],"stateMutability":"nonpayable","type":"function"},{"inputs":[],"name":"winningOutcome","outputs":[{"internalType":"uint8","name":"","type":"uint8"}],"stateMutability":"view","type":"function"},{"inputs":[{"internalType":"address","name":"","type":"address"}],"name":"yesBalance","outputs":[{"internalType":"uint256","name":"","type":"uint256"}],"stateMutability":"view","type":"function"},{"inputs":[],"name":"yesReserve","outputs":[{"internalType":"uint256","name":"","type":"uint256"}],"stateMutability":"view","type":"function"}],"evm":{"bytecode":{"linkReferences":{},"object":"60c06040523480156200001157600080fd5b5060405162001ba338038062001ba38339810160408190526200003491620001ad565b806001600160a01b0381166200006557604051631e4fbdf760e01b8152600060048201526024015b60405180910390fd5b62000070816200012a565b50600180556001600160a01b038416620000bc5760405162461bcd60e51b815260206004820152600c60248201526b0636f6c6c61746572616c3d360a41b60448201526064016200005c565b428211620001015760405162461bcd60e51b815260206004820152601160248201527018db1bdcd9551a5b59481a5b881c185cdd607a1b60448201526064016200005c565b6001600160a01b03841660805260026200011c848262000343565b505060a052506200040f9050565b600080546001600160a01b038381166001600160a01b0319831681178455604051919092169283917f8be0079c531659141344cd1fd0a4f28419497f9722a3daafe3b4186f6b6457e09190a35050565b80516001600160a01b03811681146200019257600080fd5b919050565b634e487b7160e01b600052604160045260246000fd5b60008060008060808587031215620001c457600080fd5b620001cf856200017a565b602086810151919550906001600160401b0380821115620001ef57600080fd5b818801915088601f8301126200020457600080fd5b81518181111562000219576200021962000197565b604051601f8201601f19908116603f0116810190838211818310171562000244576200024462000197565b816040528281528b868487010111156200025d57600080fd5b600093505b8284101562000281578484018601518185018701529285019262000262565b600086848301015280985050505050505060408501519150620002a7606086016200017a565b905092959194509250565b600181811c90821680620002c757607f821691505b602082108103620002e857634e487b7160e01b600052602260045260246000fd5b50919050565b601f8211156200033e576000816000526020600020601f850160051c81016020861015620003195750805b601f850160051c820191505b818110156200033a5782815560010162000325565b5050505b505050565b81516001600160401b038111156200035f576200035f62000197565b6200037781620003708454620002b2565b84620002ee565b602080601f831160018114620003af5760008415620003965750858301515b600019600386901b1c1916600185901b1785556200033a565b600085815260208120601f198616915b82811015620003e057888601518255948401946001909101908401620003bf565b5085821015620003ff5787850151600019600388901b60f8161c191681555b5050505050600190811b01905550565b60805160a0516117056200049e600039600081816102d401528181610446015281816105c6015281816107890152818161097c01528181610bff01528181610cd201528181610f80015261116a0152600081816103b001528181610553015281816107fb015281816109ee01528181610b4a01528181610d4401528181610efe01526111dc01526117056000f3fe608060405234801561001057600080fd5b50600436106101c45760003560e01c806372a9fa6e116100f9578063be040fb011610097578063d4ecc49911610071578063d4ecc499146103a3578063d8dfeb45146103ab578063dbceb005146103d2578063f2fde38b146103e557600080fd5b8063be040fb014610380578063bf333f2c14610388578063cd9123741461039057600080fd5b80639b34ae03116100d35780639b34ae031461033f578063a0270dbc14610351578063a9f6b05814610364578063b2670d741461037757600080fd5b806372a9fa6e146102fe5780638821559d146103075780638da5cb5b1461031a57600080fd5b80633fad9ae0116101665780635b883917116101405780635b883917146102a75780635db52051146102c7578063627749e6146102cf578063715018a6146102f657600080fd5b80633fad9ae01461026557806340db650f1461027a57806351c6590a1461029457600080fd5b806324a47aeb116101a257806324a47aeb1461020d57806328563a6614610222578063399af502146102355780633f6fa6551461024857600080fd5b80630ffa9bed146101c957806317081478146101fc578063249d39e914610204575b600080fd5b6101e96101d7366004611521565b60056020526000908152604090205481565b6040519081526020015b60405180910390f35b6101e96103f8565b6101e961271081565b61022061021b366004611551565b610444565b005b6101e961023036600461156a565b6105c2565b6101e961024336600461156a565b610785565b6003546102559060ff1681565b60405190151581526020016101f3565b61026d6108ec565b6040516101f3919061158c565b610282600181565b60405160ff90911681526020016101f3565b6102206102a2366004611551565b61097a565b6101e96102b5366004611521565b60046020526000908152604090205481565b610282600081565b6101e97f000000000000000000000000000000000000000000000000000000000000000081565b610220610a86565b6101e960075481565b610220610315366004611521565b610a9a565b6000546001600160a01b03165b6040516001600160a01b0390911681526020016101f3565b60035461028290610100900460ff1681565b61022061035f3660046115db565b610bd1565b6101e961037236600461156a565b610cce565b6101e960065481565b610220610dfc565b6101e9601e81565b6101e961039e36600461156a565b610f7c565b6101e961112c565b6103277f000000000000000000000000000000000000000000000000000000000000000081565b6102206103e0366004611551565b611168565b6102206103f3366004611521565b611284565b60008060075460065461040b9190611614565b90508060000361041d57600091505090565b80600754670de0b6b3a76400006104349190611627565b61043e919061163e565b91505090565b7f000000000000000000000000000000000000000000000000000000000000000042106104835760405162b5f6bf60e41b815260040160405180910390fd5b61048b6112bf565b600081116104b45760405162461bcd60e51b81526004016104ab90611660565b60405180910390fd5b336000908152600460205260409020548111806104df57503360009081526005602052604090205481115b156104fd57604051631e9acf1760e31b815260040160405180910390fd5b336000908152600460205260408120805483929061051c908490611682565b90915550503360009081526005602052604081208054839290610540908490611682565b9091555061057a90506001600160a01b037f00000000000000000000000000000000000000000000000000000000000000001633836112e9565b604080518281526020810183905233917f8421b0f95c0765e1ffbc4d13f827d1bdbee29eca261a6b9c2fa762e07409a14891015b60405180910390a26105bf60018055565b50565b60007f000000000000000000000000000000000000000000000000000000000000000042106106035760405162b5f6bf60e41b815260040160405180910390fd5b61060b6112bf565b6000831161062b5760405162461bcd60e51b81526004016104ab90611660565b3360009081526004602052604090205483111561065b57604051631e9acf1760e31b815260040160405180910390fd5b600754158061066a5750600654155b1561068857604051634323a55560e01b815260040160405180910390fd5b6106978360065460075461134d565b9050818110156106ba576040516307dd37f760e41b815260040160405180910390fd5b33600090815260046020526040812080548592906106d9908490611682565b9250508190555082600660008282546106f29190611614565b92505081905550806007600082825461070b9190611682565b9091555050336000908152600560205260408120805483929061072f908490611614565b9091555050604080518481526020810183905260009160019133917fbc32eade4ae61ce3f740a86bfdd2f6fdabb2c401e6641752b43f515ab1ed7f9791015b60405180910390a461077f60018055565b92915050565b60007f000000000000000000000000000000000000000000000000000000000000000042106107c65760405162b5f6bf60e41b815260040160405180910390fd5b6107ce6112bf565b600083116107ee5760405162461bcd60e51b81526004016104ab90611660565b6108236001600160a01b037f0000000000000000000000000000000000000000000000000000000000000000163330866113f4565b3360009081526004602052604081208054859290610842908490611614565b90915550503360009081526005602052604081208054859290610866908490611614565b9091555050604080518481526020810185905233917f5d95162205dc900555172b9649799b0334d5c456a8c9d875524229cd73416d4b910160405180910390a260006108b3846000610f7c565b90506108bf8185611614565b9150828210156108e2576040516307dd37f760e41b815260040160405180910390fd5b5061077f60018055565b600280546108f990611695565b80601f016020809104026020016040519081016040528092919081815260200182805461092590611695565b80156109725780601f1061094757610100808354040283529160200191610972565b820191906000526020600020905b81548152906001019060200180831161095557829003601f168201915b505050505081565b7f000000000000000000000000000000000000000000000000000000000000000042106109b95760405162b5f6bf60e41b815260040160405180910390fd5b6109c16112bf565b600081116109e15760405162461bcd60e51b81526004016104ab90611660565b610a166001600160a01b037f0000000000000000000000000000000000000000000000000000000000000000163330846113f4565b8060066000828254610a289190611614565b925050819055508060076000828254610a419190611614565b9091555050604080518281526020810183905290810182905233907f64b83944e79c3ce8d4c297411de637c3e102d064677aac0c163976ebdcd6f50e906060016105ae565b610a8e611433565b610a986000611460565b565b610aa2611433565b610aaa6112bf565b60035460ff16610acd57604051639f4a648960e01b815260040160405180910390fd5b6001600160a01b038116610b0c5760405162461bcd60e51b81526004016104ab906020808252600490820152630746f3d360e41b604082015260600190565b60035460009060001961010090910460ff1601610b325750600680546000909155610b3d565b506007805460009091555b610b716001600160a01b037f00000000000000000000000000000000000000000000000000000000000000001683836112e9565b6003546040805161010090920460ff1682526020820183905281018290526001600160a01b038316907fff4bb3a86facc18d8252e298b6a592b49328e8cfcbe2a80e334fdb4cd273090c9060600160405180910390a2506105bf60018055565b610bd9611433565b60035460ff1615610bfd576040516336ab81e160e11b815260040160405180910390fd5b7f0000000000000000000000000000000000000000000000000000000000000000421015610c3d5760405162b5f6bf60e41b815260040160405180910390fd5b60ff811615801590610c53575060ff8116600114155b15610c715760405163900d8abd60e01b815260040160405180910390fd5b6003805460ff83166101000261ffff199091161760011790556040517f5e186f09b9c93491f14e277eea7faa5de6a2d4bda75a79af7a3684fbfb42da6090610cc390839060ff91909116815260200190565b60405180910390a150565b60007f00000000000000000000000000000000000000000000000000000000000000004210610d0f5760405162b5f6bf60e41b815260040160405180910390fd5b610d176112bf565b60008311610d375760405162461bcd60e51b81526004016104ab90611660565b610d6c6001600160a01b037f0000000000000000000000000000000000000000000000000000000000000000163330866113f4565b3360009081526004602052604081208054859290610d8b908490611614565b90915550503360009081526005602052604081208054859290610daf908490611614565b9091555050604080518481526020810185905233917f5d95162205dc900555172b9649799b0334d5c456a8c9d875524229cd73416d4b910160405180910390a260006108b38460006105c2565b610e046112bf565b60035460ff16610e2757604051639f4a648960e01b815260040160405180910390fd5b60035460009060001961010090910460ff1601610e9a57503360009081526004602052604090205480610e855760405162461bcd60e51b81526020600482015260066024820152656e6f2059455360d01b60448201526064016104ab565b33600090815260046020526040812055610ef1565b503360009081526005602052604090205480610ee05760405162461bcd60e51b81526020600482015260056024820152646e6f204e4f60d81b60448201526064016104ab565b336000908152600560205260408120555b610f256001600160a01b037f00000000000000000000000000000000000000000000000000000000000000001633836112e9565b6003546040805161010090920460ff16825260208201839052810182905233907ff8b564b1b7f5bb9fea632ddf0036474f68d8cec99f4b2e96a29be779871e059a9060600160405180910390a250610a9860018055565b60007f00000000000000000000000000000000000000000000000000000000000000004210610fbd5760405162b5f6bf60e41b815260040160405180910390fd5b610fc56112bf565b60008311610fe55760405162461bcd60e51b81526004016104ab90611660565b3360009081526005602052604090205483111561101557604051631e9acf1760e31b815260040160405180910390fd5b60075415806110245750600654155b1561104257604051634323a55560e01b815260040160405180910390fd5b6110518360075460065461134d565b905081811015611074576040516307dd37f760e41b815260040160405180910390fd5b3360009081526005602052604081208054859290611093908490611682565b9250508190555082600760008282546110ac9190611614565b9250508190555080600660008282546110c59190611682565b909155505033600090815260046020526040812080548392906110e9908490611614565b9091555050604080518481526020810183905260019160009133917fbc32eade4ae61ce3f740a86bfdd2f6fdabb2c401e6641752b43f515ab1ed7f97910161076e565b60008060075460065461113f9190611614565b90508060000361115157600091505090565b80600654670de0b6b3a76400006104349190611627565b7f000000000000000000000000000000000000000000000000000000000000000042106111a75760405162b5f6bf60e41b815260040160405180910390fd5b6111af6112bf565b600081116111cf5760405162461bcd60e51b81526004016104ab90611660565b6112046001600160a01b037f0000000000000000000000000000000000000000000000000000000000000000163330846113f4565b3360009081526004602052604081208054839290611223908490611614565b90915550503360009081526005602052604081208054839290611247908490611614565b9091555050604080518281526020810183905233917f5d95162205dc900555172b9649799b0334d5c456a8c9d875524229cd73416d4b91016105ae565b61128c611433565b6001600160a01b0381166112b657604051631e4fbdf760e01b8152600060048201526024016104ab565b6105bf81611460565b6002600154036112e257604051633ee5aeb560e01b815260040160405180910390fd5b6002600155565b6040516001600160a01b0383811660248301526044820183905261134891859182169063a9059cbb906064015b604051602081830303815290604052915060e01b6020820180516001600160e01b0383818316178352505050506114b0565b505050565b6000808311801561135e5750600082115b61139b5760405162461bcd60e51b815260206004820152600e60248201526d656d70747920726573657276657360901b60448201526064016104ab565b60006113aa601e612710611682565b6113b49086611627565b905060006113c28483611627565b90506000826113d361271088611627565b6113dd9190611614565b90506113e9818361163e565b979650505050505050565b6040516001600160a01b03848116602483015283811660448301526064820183905261142d9186918216906323b872dd90608401611316565b50505050565b6000546001600160a01b03163314610a985760405163118cdaa760e01b81523360048201526024016104ab565b600080546001600160a01b038381166001600160a01b0319831681178455604051919092169283917f8be0079c531659141344cd1fd0a4f28419497f9722a3daafe3b4186f6b6457e09190a35050565b600080602060008451602086016000885af1806114d3576040513d6000823e3d81fd5b50506000513d915081156114eb5780600114156114f8565b6001600160a01b0384163b155b1561142d57604051635274afe760e01b81526001600160a01b03851660048201526024016104ab565b60006020828403121561153357600080fd5b81356001600160a01b038116811461154a57600080fd5b9392505050565b60006020828403121561156357600080fd5b5035919050565b6000806040838503121561157d57600080fd5b50508035926020909101359150565b60006020808352835180602085015260005b818110156115ba5785810183015185820160400152820161159e565b506000604082860101526040601f19601f8301168501019250505092915050565b6000602082840312156115ed57600080fd5b813560ff8116811461154a57600080fd5b634e487b7160e01b600052601160045260246000fd5b8082018082111561077f5761077f6115fe565b808202811582820484141761077f5761077f6115fe565b60008261165b57634e487b7160e01b600052601260045260246000fd5b500490565b6020808252600890820152670616d6f756e743d360c41b604082015260600190565b8181038181111561077f5761077f6115fe565b600181811c908216806116a957607f821691505b6020821081036116c957634e487b7160e01b600052602260045260246000fd5b5091905056fea2646970667358221220e0eb1b0cd9bde4117b0cfdcc3801aa1b8256ed48a098532837f6f80067233f0964736f6c63430008180033","opcodes":"PUSH1 0xC0 PUSH1 0x40 MSTORE CALLVALUE DUP1 ISZERO PUSH3 0x11 JUMPI PUSH1 0x0 DUP1 REVERT JUMPDEST POP PUSH1 0x40 MLOAD PUSH3 0x1BA3 CODESIZE SUB DUP1 PUSH3 0x1BA3 DUP4 CODECOPY DUP2 ADD PUSH1 0x40 DUP2 SWAP1 MSTORE PUSH3 0x34 SWAP2 PUSH3 0x1AD JUMP JUMPDEST DUP1 PUSH1 0x1 PUSH1 0x1 PUSH1 0xA0 SHL SUB DUP2 AND PUSH3 0x65 JUMPI PUSH1 0x40 MLOAD PUSH4 0x1E4FBDF7 PUSH1 0xE0 SHL DUP2 MSTORE PUSH1 0x0 PUSH1 0x4 DUP3 ADD MSTORE PUSH1 0x24 ADD JUMPDEST PUSH1 0x40 MLOAD DUP1 SWAP2 SUB SWAP1 REVERT JUMPDEST PUSH3 0x70 DUP2 PUSH3 0x12A JUMP JUMPDEST POP PUSH1 0x1 DUP1 SSTORE PUSH1 0x1 PUSH1 0x1 PUSH1 0xA0 SHL SUB DUP5 AND PUSH3 0xBC JUMPI PUSH1 0x40 MLOAD PUSH3 0x461BCD PUSH1 0xE5 SHL DUP2 MSTORE PUSH1 0x20 PUSH1 0x4 DUP3 ADD MSTORE PUSH1 0xC PUSH1 0x24 DUP3 ADD MSTORE PUSH12 0x636F6C6C61746572616C3D3 PUSH1 0xA4 SHL PUSH1 0x44 DUP3 ADD MSTORE PUSH1 0x64 ADD PUSH3 0x5C JUMP JUMPDEST TIMESTAMP DUP3 GT PUSH3 0x101 JUMPI PUSH1 0x40 MLOAD PUSH3 0x461BCD PUSH1 0xE5 SHL DUP2 MSTORE PUSH1 0x20 PUSH1 0x4 DUP3 ADD MSTORE PUSH1 0x11 PUSH1 0x24 DUP3 ADD MSTORE PUSH17 0x18DB1BDCD9551A5B59481A5B881C185CDD PUSH1 0x7A SHL PUSH1 0x44 DUP3 ADD MSTORE PUSH1 0x64 ADD PUSH3 0x5C JUMP JUMPDEST PUSH1 0x1 PUSH1 0x1 PUSH1 0xA0 SHL SUB DUP5 AND PUSH1 0x80 MSTORE PUSH1 0x2 PUSH3 0x11C DUP5 DUP3 PUSH3 0x343 JUMP JUMPDEST POP POP PUSH1 0xA0 MSTORE POP PUSH3 0x40F SWAP1 POP JUMP JUMPDEST PUSH1 0x0 DUP1 SLOAD PUSH1 0x1 PUSH1 0x1 PUSH1 0xA0 SHL SUB DUP4 DUP2 AND PUSH1 0x1 PUSH1 0x1 PUSH1 0xA0 SHL SUB NOT DUP4 AND DUP2 OR DUP5 SSTORE PUSH1 0x40 MLOAD SWAP2 SWAP1 SWAP3 AND SWAP3 DUP4 SWAP2 PUSH32 0x8BE0079C531659141344CD1FD0A4F28419497F9722A3DAAFE3B4186F6B6457E0 SWAP2 SWAP1 LOG3 POP POP JUMP JUMPDEST DUP1 MLOAD PUSH1 0x1 PUSH1 0x1 PUSH1 0xA0 SHL SUB DUP2 AND DUP2 EQ PUSH3 0x192 JUMPI PUSH1 0x0 DUP1 REVERT JUMPDEST SWAP2 SWAP1 POP JUMP JUMPDEST PUSH4 0x4E487B71 PUSH1 0xE0 SHL PUSH1 0x0 MSTORE PUSH1 0x41 PUSH1 0x4 MSTORE PUSH1 0x24 PUSH1 0x0 REVERT JUMPDEST PUSH1 0x0 DUP1 PUSH1 0x0 DUP1 PUSH1 0x80 DUP6 DUP8 SUB SLT ISZERO PUSH3 0x1C4 JUMPI PUSH1 0x0 DUP1 REVERT JUMPDEST PUSH3 0x1CF DUP6 PUSH3 0x17A JUMP JUMPDEST PUSH1 0x20 DUP7 DUP2 ADD MLOAD SWAP2 SWAP6 POP SWAP1 PUSH1 0x1 PUSH1 0x1 PUSH1 0x40 SHL SUB DUP1 DUP3 GT ISZERO PUSH3 0x1EF JUMPI PUSH1 0x0 DUP1 REVERT JUMPDEST DUP2 DUP9 ADD SWAP2 POP DUP9 PUSH1 0x1F DUP4 ADD SLT PUSH3 0x204 JUMPI PUSH1 0x0 DUP1 REVERT JUMPDEST DUP2 MLOAD DUP2 DUP2 GT ISZERO PUSH3 0x219 JUMPI PUSH3 0x219 PUSH3 0x197 JUMP JUMPDEST PUSH1 0x40 MLOAD PUSH1 0x1F DUP3 ADD PUSH1 0x1F NOT SWAP1 DUP2 AND PUSH1 0x3F ADD AND DUP2 ADD SWAP1 DUP4 DUP3 GT DUP2 DUP4 LT OR ISZERO PUSH3 0x244 JUMPI PUSH3 0x244 PUSH3 0x197 JUMP JUMPDEST DUP2 PUSH1 0x40 MSTORE DUP3 DUP2 MSTORE DUP12 DUP7 DUP5 DUP8 ADD ADD GT ISZERO PUSH3 0x25D JUMPI PUSH1 0x0 DUP1 REVERT JUMPDEST PUSH1 0x0 SWAP4 POP JUMPDEST DUP3 DUP5 LT ISZERO PUSH3 0x281 JUMPI DUP5 DUP5 ADD DUP7 ADD MLOAD DUP2 DUP6 ADD DUP8 ADD MSTORE SWAP3 DUP6 ADD SWAP3 PUSH3 0x262 JUMP JUMPDEST PUSH1 0x0 DUP7 DUP5 DUP4 ADD ADD MSTORE DUP1 SWAP9 POP POP POP POP POP POP POP PUSH1 0x40 DUP6 ADD MLOAD SWAP2 POP PUSH3 0x2A7 PUSH1 0x60 DUP7 ADD PUSH3 0x17A JUMP JUMPDEST SWAP1 POP SWAP3 SWAP6 SWAP2 SWAP5 POP SWAP3 POP JUMP JUMPDEST PUSH1 0x1 DUP2 DUP2 SHR SWAP1 DUP3 AND DUP1 PUSH3 0x2C7 JUMPI PUSH1 0x7F DUP3 AND SWAP2 POP JUMPDEST PUSH1 0x20 DUP3 LT DUP2 SUB PUSH3 0x2E8 JUMPI PUSH4 0x4E487B71 PUSH1 0xE0 SHL PUSH1 0x0 MSTORE PUSH1 0x22 PUSH1 0x4 MSTORE PUSH1 0x24 PUSH1 0x0 REVERT JUMPDEST POP SWAP2 SWAP1 POP JUMP JUMPDEST PUSH1 0x1F DUP3 GT ISZERO PUSH3 0x33E JUMPI PUSH1 0x0 DUP2 PUSH1 0x0 MSTORE PUSH1 0x20 PUSH1 0x0 KECCAK256 PUSH1 0x1F DUP6 ADD PUSH1 0x5 SHR DUP2 ADD PUSH1 0x20 DUP7 LT ISZERO PUSH3 0x319 JUMPI POP DUP1 JUMPDEST PUSH1 0x1F DUP6 ADD PUSH1 0x5 SHR DUP3 ADD SWAP2 POP JUMPDEST DUP2 DUP2 LT ISZERO PUSH3 0x33A JUMPI DUP3 DUP2 SSTORE PUSH1 0x1 ADD PUSH3 0x325 JUMP JUMPDEST POP POP POP JUMPDEST POP POP POP JUMP JUMPDEST DUP2 MLOAD PUSH1 0x1 PUSH1 0x1 PUSH1 0x40 SHL SUB DUP2 GT ISZERO PUSH3 0x35F JUMPI PUSH3 0x35F PUSH3 0x197 JUMP JUMPDEST PUSH3 0x377 DUP2 PUSH3 0x370 DUP5 SLOAD PUSH3 0x2B2 JUMP JUMPDEST DUP5 PUSH3 0x2EE JUMP JUMPDEST PUSH1 0x20 DUP1 PUSH1 0x1F DUP4 GT PUSH1 0x1 DUP2 EQ PUSH3 0x3AF JUMPI PUSH1 0x0 DUP5 ISZERO PUSH3 0x396 JUMPI POP DUP6 DUP4 ADD MLOAD JUMPDEST PUSH1 0x0 NOT PUSH1 0x3 DUP7 SWAP1 SHL SHR NOT AND PUSH1 0x1 DUP6 SWAP1 SHL OR DUP6 SSTORE PUSH3 0x33A JUMP JUMPDEST PUSH1 0x0 DUP6 DUP2 MSTORE PUSH1 0x20 DUP2 KECCAK256 PUSH1 0x1F NOT DUP7 AND SWAP2 JUMPDEST DUP3 DUP2 LT ISZERO PUSH3 0x3E0 JUMPI DUP9 DUP7 ADD MLOAD DUP3 SSTORE SWAP5 DUP5 ADD SWAP5 PUSH1 0x1 SWAP1 SWAP2 ADD SWAP1 DUP5 ADD PUSH3 0x3BF JUMP JUMPDEST POP DUP6 DUP3 LT ISZERO PUSH3 0x3FF JUMPI DUP8 DUP6 ADD MLOAD PUSH1 0x0 NOT PUSH1 0x3 DUP9 SWAP1 SHL PUSH1 0xF8 AND SHR NOT AND DUP2 SSTORE JUMPDEST POP POP POP POP POP PUSH1 0x1 SWAP1 DUP2 SHL ADD SWAP1 SSTORE POP JUMP JUMPDEST PUSH1 0x80 MLOAD PUSH1 0xA0 MLOAD PUSH2 0x1705 PUSH3 0x49E PUSH1 0x0 CODECOPY PUSH1 0x0 DUP2 DUP2 PUSH2 0x2D4 ADD MSTORE DUP2 DUP2 PUSH2 0x446 ADD MSTORE DUP2 DUP2 PUSH2 0x5C6 ADD MSTORE DUP2 DUP2 PUSH2 0x789 ADD MSTORE DUP2 DUP2 PUSH2 0x97C ADD MSTORE DUP2 DUP2 PUSH2 0xBFF ADD MSTORE DUP2 DUP2 PUSH2 0xCD2 ADD MSTORE DUP2 DUP2 PUSH2 0xF80 ADD MSTORE PUSH2 0x116A ADD MSTORE PUSH1 0x0 DUP2 DUP2 PUSH2 0x3B0 ADD MSTORE DUP2 DUP2 PUSH2 0x553 ADD MSTORE DUP2 DUP2 PUSH2 0x7FB ADD MSTORE DUP2 DUP2 PUSH2 0x9EE ADD MSTORE DUP2 DUP2 PUSH2 0xB4A ADD MSTORE DUP2 DUP2 PUSH2 0xD44 ADD MSTORE DUP2 DUP2 PUSH2 0xEFE ADD MSTORE PUSH2 0x11DC ADD MSTORE PUSH2 0x1705 PUSH1 0x0 RETURN INVALID PUSH1 0x80 PUSH1 0x40 MSTORE CALLVALUE DUP1 ISZERO PUSH2 0x10 JUMPI PUSH1 0x0 DUP1 REVERT JUMPDEST POP PUSH1 0x4 CALLDATASIZE LT PUSH2 0x1C4 JUMPI PUSH1 0x0 CALLDATALOAD PUSH1 0xE0 SHR DUP1 PUSH4 0x72A9FA6E GT PUSH2 0xF9 JUMPI DUP1 PUSH4 0xBE040FB0 GT PUSH2 0x97 JUMPI DUP1 PUSH4 0xD4ECC499 GT PUSH2 0x71 JUMPI DUP1 PUSH4 0xD4ECC499 EQ PUSH2 0x3A3 JUMPI DUP1 PUSH4 0xD8DFEB45 EQ PUSH2 0x3AB JUMPI DUP1 PUSH4 0xDBCEB005 EQ PUSH2 0x3D2 JUMPI DUP1 PUSH4 0xF2FDE38B EQ PUSH2 0x3E5 JUMPI PUSH1 0x0 DUP1 REVERT JUMPDEST DUP1 PUSH4 0xBE040FB0 EQ PUSH2 0x380 JUMPI DUP1 PUSH4 0xBF333F2C EQ PUSH2 0x388 JUMPI DUP1 PUSH4 0xCD912374 EQ PUSH2 0x390 JUMPI PUSH1 0x0 DUP1 REVERT JUMPDEST DUP1 PUSH4 0x9B34AE03 GT PUSH2 0xD3 JUMPI DUP1 PUSH4 0x9B34AE03 EQ PUSH2 0x33F JUMPI DUP1 PUSH4 0xA0270DBC EQ PUSH2 0x351 JUMPI DUP1 PUSH4 0xA9F6B058 EQ PUSH2 0x364 JUMPI DUP1 PUSH4 0xB2670D74 EQ PUSH2 0x377 JUMPI PUSH1 0x0 DUP1 REVERT JUMPDEST DUP1 PUSH4 0x72A9FA6E EQ PUSH2 0x2FE JUMPI DUP1 PUSH4 0x8821559D EQ PUSH2 0x307 JUMPI DUP1 PUSH4 0x8DA5CB5B EQ PUSH2 0x31A JUMPI PUSH1 0x0 DUP1 REVERT JUMPDEST DUP1 PUSH4 0x3FAD9AE0 GT PUSH2 0x166 JUMPI DUP1 PUSH4 0x5B883917 GT PUSH2 0x140 JUMPI DUP1 PUSH4 0x5B883917 EQ PUSH2 0x2A7 JUMPI DUP1 PUSH4 0x5DB52051 EQ PUSH2 0x2C7 JUMPI DUP1 PUSH4 0x627749E6 EQ PUSH2 0x2CF JUMPI DUP1 PUSH4 0x715018A6 EQ PUSH2 0x2F6 JUMPI PUSH1 0x0 DUP1 REVERT JUMPDEST DUP1 PUSH4 0x3FAD9AE0 EQ PUSH2 0x265 JUMPI DUP1 PUSH4 0x40DB650F EQ PUSH2 0x27A JUMPI DUP1 PUSH4 0x51C6590A EQ PUSH2 0x294 JUMPI PUSH1 0x0 DUP1 REVERT JUMPDEST DUP1 PUSH4 0x24A47AEB GT PUSH2 0x1A2 JUMPI DUP1 PUSH4 0x24A47AEB EQ PUSH2 0x20D JUMPI DUP1 PUSH4 0x28563A66 EQ PUSH2 0x222 JUMPI DUP1 PUSH4 0x399AF502 EQ PUSH2 0x235 JUMPI DUP1 PUSH4 0x3F6FA655 EQ PUSH2 0x248 JUMPI PUSH1 0x0 DUP1 REVERT JUMPDEST DUP1 PUSH4 0xFFA9BED EQ PUSH2 0x1C9 JUMPI DUP1 PUSH4 0x17081478 EQ PUSH2 0x1FC JUMPI DUP1 PUSH4 0x249D39E9 EQ PUSH2 0x204 JUMPI JUMPDEST PUSH1 0x0 DUP1 REVERT JUMPDEST PUSH2 0x1E9 PUSH2 0x1D7 CALLDATASIZE PUSH1 0x4 PUSH2 0x1521 JUMP JUMPDEST PUSH1 0x5 PUSH1 0x20 MSTORE PUSH1 0x0 SWAP1 DUP2 MSTORE PUSH1 0x40 SWAP1 KECCAK256 SLOAD DUP2 JUMP JUMPDEST PUSH1 0x40 MLOAD SWAP1 DUP2 MSTORE PUSH1 0x20 ADD JUMPDEST PUSH1 0x40 MLOAD DUP1 SWAP2 SUB SWAP1 RETURN JUMPDEST PUSH2 0x1E9 PUSH2 0x3F8 JUMP JUMPDEST PUSH2 0x1E9 PUSH2 0x2710 DUP2 JUMP JUMPDEST PUSH2 0x220 PUSH2 0x21B CALLDATASIZE PUSH1 0x4 PUSH2 0x1551 JUMP JUMPDEST PUSH2 0x444 JUMP JUMPDEST STOP JUMPDEST PUSH2 0x1E9 PUSH2 0x230 CALLDATASIZE PUSH1 0x4 PUSH2 0x156A JUMP JUMPDEST PUSH2 0x5C2 JUMP JUMPDEST PUSH2 0x1E9 PUSH2 0x243 CALLDATASIZE PUSH1 0x4 PUSH2 0x156A JUMP JUMPDEST PUSH2 0x785 JUMP JUMPDEST PUSH1 0x3 SLOAD PUSH2 0x255 SWAP1 PUSH1 0xFF AND DUP2 JUMP JUMPDEST PUSH1 0x40 MLOAD SWAP1 ISZERO ISZERO DUP2 MSTORE PUSH1 0x20 ADD PUSH2 0x1F3 JUMP JUMPDEST PUSH2 0x26D PUSH2 0x8EC JUMP JUMPDEST PUSH1 0x40 MLOAD PUSH2 0x1F3 SWAP2 SWAP1 PUSH2 0x158C JUMP JUMPDEST PUSH2 0x282 PUSH1 0x1 DUP2 JUMP JUMPDEST PUSH1 0x40 MLOAD PUSH1 0xFF SWAP1 SWAP2 AND DUP2 MSTORE PUSH1 0x20 ADD PUSH2 0x1F3 JUMP JUMPDEST PUSH2 0x220 PUSH2 0x2A2 CALLDATASIZE PUSH1 0x4 PUSH2 0x1551 JUMP JUMPDEST PUSH2 0x97A JUMP JUMPDEST PUSH2 0x1E9 PUSH2 0x2B5 CALLDATASIZE PUSH1 0x4 PUSH2 0x1521 JUMP JUMPDEST PUSH1 0x4 PUSH1 0x20 MSTORE PUSH1 0x0 SWAP1 DUP2 MSTORE PUSH1 0x40 SWAP1 KECCAK256 SLOAD DUP2 JUMP JUMPDEST PUSH2 0x282 PUSH1 0x0 DUP2 JUMP JUMPDEST PUSH2 0x1E9 PUSH32 0x0 DUP2 JUMP JUMPDEST PUSH2 0x220 PUSH2 0xA86 JUMP JUMPDEST PUSH2 0x1E9 PUSH1 0x7 SLOAD DUP2 JUMP JUMPDEST PUSH2 0x220 PUSH2 0x315 CALLDATASIZE PUSH1 0x4 PUSH2 0x1521 JUMP JUMPDEST PUSH2 0xA9A JUMP JUMPDEST PUSH1 0x0 SLOAD PUSH1 0x1 PUSH1 0x1 PUSH1 0xA0 SHL SUB AND JUMPDEST PUSH1 0x40 MLOAD PUSH1 0x1 PUSH1 0x1 PUSH1 0xA0 SHL SUB SWAP1 SWAP2 AND DUP2 MSTORE PUSH1 0x20 ADD PUSH2 0x1F3 JUMP JUMPDEST PUSH1 0x3 SLOAD PUSH2 0x282 SWAP1 PUSH2 0x100 SWAP1 DIV PUSH1 0xFF AND DUP2 JUMP JUMPDEST PUSH2 0x220 PUSH2 0x35F CALLDATASIZE PUSH1 0x4 PUSH2 0x15DB JUMP JUMPDEST PUSH2 0xBD1 JUMP JUMPDEST PUSH2 0x1E9 PUSH2 0x372 CALLDATASIZE PUSH1 0x4 PUSH2 0x156A JUMP JUMPDEST PUSH2 0xCCE JUMP JUMPDEST PUSH2 0x1E9 PUSH1 0x6 SLOAD DUP2 JUMP JUMPDEST PUSH2 0x220 PUSH2 0xDFC JUMP JUMPDEST PUSH2 0x1E9 PUSH1 0x1E DUP2 JUMP JUMPDEST PUSH2 0x1E9 PUSH2 0x39E CALLDATASIZE PUSH1 0x4 PUSH2 0x156A JUMP JUMPDEST PUSH2 0xF7C JUMP JUMPDEST PUSH2 0x1E9 PUSH2 0x112C JUMP JUMPDEST PUSH2 0x327 PUSH32 0x0 DUP2 JUMP JUMPDEST PUSH2 0x220 PUSH2 0x3E0 CALLDATASIZE PUSH1 0x4 PUSH2 0x1551 JUMP JUMPDEST PUSH2 0x1168 JUMP JUMPDEST PUSH2 0x220 PUSH2 0x3F3 CALLDATASIZE PUSH1 0x4 PUSH2 0x1521 JUMP JUMPDEST PUSH2 0x1284 JUMP JUMPDEST PUSH1 0x0 DUP1 PUSH1 0x7 SLOAD PUSH1 0x6 SLOAD PUSH2 0x40B SWAP2 SWAP1 PUSH2 0x1614 JUMP JUMPDEST SWAP1 POP DUP1 PUSH1 0x0 SUB PUSH2 0x41D JUMPI PUSH1 0x0 SWAP2 POP POP SWAP1 JUMP JUMPDEST DUP1 PUSH1 0x7 SLOAD PUSH8 0xDE0B6B3A7640000 PUSH2 0x434 SWAP2 SWAP1 PUSH2 0x1627 JUMP JUMPDEST PUSH2 0x43E SWAP2 SWAP1 PUSH2 0x163E JUMP JUMPDEST SWAP2 POP POP SWAP1 JUMP JUMPDEST PUSH32 0x0 TIMESTAMP LT PUSH2 0x483 JUMPI PUSH1 0x40 MLOAD PUSH3 0xB5F6BF PUSH1 0xE4 SHL DUP2 MSTORE PUSH1 0x4 ADD PUSH1 0x40 MLOAD DUP1 SWAP2 SUB SWAP1 REVERT JUMPDEST PUSH2 0x48B PUSH2 0x12BF JUMP JUMPDEST PUSH1 0x0 DUP2 GT PUSH2 0x4B4 JUMPI PUSH1 0x40 MLOAD PUSH3 0x461BCD PUSH1 0xE5 SHL DUP2 MSTORE PUSH1 0x4 ADD PUSH2 0x4AB SWAP1 PUSH2 0x1660 JUMP JUMPDEST PUSH1 0x40 MLOAD DUP1 SWAP2 SUB SWAP1 REVERT JUMPDEST CALLER PUSH1 0x0 SWAP1 DUP2 MSTORE PUSH1 0x4 PUSH1 0x20 MSTORE PUSH1 0x40 SWAP1 KECCAK256 SLOAD DUP2 GT DUP1 PUSH2 0x4DF JUMPI POP CALLER PUSH1 0x0 SWAP1 DUP2 MSTORE PUSH1 0x5 PUSH1 0x20 MSTORE PUSH1 0x40 SWAP1 KECCAK256 SLOAD DUP2 GT JUMPDEST ISZERO PUSH2 0x4FD JUMPI PUSH1 0x40 MLOAD PUSH4 0x1E9ACF17 PUSH1 0xE3 SHL DUP2 MSTORE PUSH1 0x4 ADD PUSH1 0x40 MLOAD DUP1 SWAP2 SUB SWAP1 REVERT JUMPDEST CALLER PUSH1 0x0 SWAP1 DUP2 MSTORE PUSH1 0x4 PUSH1 0x20 MSTORE PUSH1 0x40 DUP2 KECCAK256 DUP1 SLOAD DUP4 SWAP3 SWAP1 PUSH2 0x51C SWAP1 DUP5 SWAP1 PUSH2 0x1682 JUMP JUMPDEST SWAP1 SWAP2 SSTORE POP POP CALLER PUSH1 0x0 SWAP1 DUP2 MSTORE PUSH1 0x5 PUSH1 0x20 MSTORE PUSH1 0x40 DUP2 KECCAK256 DUP1 SLOAD DUP4 SWAP3 SWAP1 PUSH2 0x540 SWAP1 DUP5 SWAP1 PUSH2 0x1682 JUMP JUMPDEST SWAP1 SWAP2 SSTORE POP PUSH2 0x57A SWAP1 POP PUSH1 0x1 PUSH1 0x1 PUSH1 0xA0 SHL SUB PUSH32 0x0 AND CALLER DUP4 PUSH2 0x12E9 JUMP JUMPDEST PUSH1 0x40 DUP1 MLOAD DUP3 DUP2 MSTORE PUSH1 0x20 DUP2 ADD DUP4 SWAP1 MSTORE CALLER SWAP2 PUSH32 0x8421B0F95C0765E1FFBC4D13F827D1BDBEE29ECA261A6B9C2FA762E07409A148 SWAP2 ADD JUMPDEST PUSH1 0x40 MLOAD DUP1 SWAP2 SUB SWAP1 LOG2 PUSH2 0x5BF PUSH1 0x1 DUP1 SSTORE JUMP JUMPDEST POP JUMP JUMPDEST PUSH1 0x0 PUSH32 0x0 TIMESTAMP LT PUSH2 0x603 JUMPI PUSH1 0x40 MLOAD PUSH3 0xB5F6BF PUSH1 0xE4 SHL DUP2 MSTORE PUSH1 0x4 ADD PUSH1 0x40 MLOAD DUP1 SWAP2 SUB SWAP1 REVERT JUMPDEST PUSH2 0x60B PUSH2 0x12BF JUMP JUMPDEST PUSH1 0x0 DUP4 GT PUSH2 0x62B JUMPI PUSH1 0x40 MLOAD PUSH3 0x461BCD PUSH1 0xE5 SHL DUP2 MSTORE PUSH1 0x4 ADD PUSH2 0x4AB SWAP1 PUSH2 0x1660 JUMP JUMPDEST CALLER PUSH1 0x0 SWAP1 DUP2 MSTORE PUSH1 0x4 PUSH1 0x20 MSTORE PUSH1 0x40 SWAP1 KECCAK256 SLOAD DUP4 GT ISZERO PUSH2 0x65B JUMPI PUSH1 0x40 MLOAD PUSH4 0x1E9ACF17 PUSH1 0xE3 SHL DUP2 MSTORE PUSH1 0x4 ADD PUSH1 0x40 MLOAD DUP1 SWAP2 SUB SWAP1 REVERT JUMPDEST PUSH1 0x7 SLOAD ISZERO DUP1 PUSH2 0x66A JUMPI POP PUSH1 0x6 SLOAD ISZERO JUMPDEST ISZERO PUSH2 0x688 JUMPI PUSH1 0x40 MLOAD PUSH4 0x4323A555 PUSH1 0xE0 SHL DUP2 MSTORE PUSH1 0x4 ADD PUSH1 0x40 MLOAD DUP1 SWAP2 SUB SWAP1 REVERT JUMPDEST PUSH2 0x697 DUP4 PUSH1 0x6 SLOAD PUSH1 0x7 SLOAD PUSH2 0x134D JUMP JUMPDEST SWAP1 POP DUP2 DUP2 LT ISZERO PUSH2 0x6BA JUMPI PUSH1 0x40 MLOAD PUSH4 0x7DD37F7 PUSH1 0xE4 SHL DUP2 MSTORE PUSH1 0x4 ADD PUSH1 0x40 MLOAD DUP1 SWAP2 SUB SWAP1 REVERT JUMPDEST CALLER PUSH1 0x0 SWAP1 DUP2 MSTORE PUSH1 0x4 PUSH1 0x20 MSTORE PUSH1 0x40 DUP2 KECCAK256 DUP1 SLOAD DUP6 SWAP3 SWAP1 PUSH2 0x6D9 SWAP1 DUP5 SWAP1 PUSH2 0x1682 JUMP JUMPDEST SWAP3 POP POP DUP2 SWAP1 SSTORE POP DUP3 PUSH1 0x6 PUSH1 0x0 DUP3 DUP3 SLOAD PUSH2 0x6F2 SWAP2 SWAP1 PUSH2 0x1614 JUMP JUMPDEST SWAP3 POP POP DUP2 SWAP1 SSTORE POP DUP1 PUSH1 0x7 PUSH1 0x0 DUP3 DUP3 SLOAD PUSH2 0x70B SWAP2 SWAP1 PUSH2 0x1682 JUMP JUMPDEST SWAP1 SWAP2 SSTORE POP POP CALLER PUSH1 0x0 SWAP1 DUP2 MSTORE PUSH1 0x5 PUSH1 0x20 MSTORE PUSH1 0x40 DUP2 KECCAK256 DUP1 SLOAD DUP4 SWAP3 SWAP1 PUSH2 0x72F SWAP1 DUP5 SWAP1 PUSH2 0x1614 JUMP JUMPDEST SWAP1 SWAP2 SSTORE POP POP PUSH1 0x40 DUP1 MLOAD DUP5 DUP2 MSTORE PUSH1 0x20 DUP2 ADD DUP4 SWAP1 MSTORE PUSH1 0x0 SWAP2 PUSH1 0x1 SWAP2 CALLER SWAP2 PUSH32 0xBC32EADE4AE61CE3F740A86BFDD2F6FDABB2C401E6641752B43F515AB1ED7F97 SWAP2 ADD JUMPDEST PUSH1 0x40 MLOAD DUP1 SWAP2 SUB SWAP1 LOG4 PUSH2 0x77F PUSH1 0x1 DUP1 SSTORE JUMP JUMPDEST SWAP3 SWAP2 POP POP JUMP JUMPDEST PUSH1 0x0 PUSH32 0x0 TIMESTAMP LT PUSH2 0x7C6 JUMPI PUSH1 0x40 MLOAD PUSH3 0xB5F6BF PUSH1 0xE4 SHL DUP2 MSTORE PUSH1 0x4 ADD PUSH1 0x40 MLOAD DUP1 SWAP2 SUB SWAP1 REVERT JUMPDEST PUSH2 0x7CE PUSH2 0x12BF JUMP JUMPDEST PUSH1 0x0 DUP4 GT PUSH2 0x7EE JUMPI PUSH1 0x40 MLOAD PUSH3 0x461BCD PUSH1 0xE5 SHL DUP2 MSTORE PUSH1 0x4 ADD PUSH2 0x4AB SWAP1 PUSH2 0x1660 JUMP JUMPDEST PUSH2 0x823 PUSH1 0x1 PUSH1 0x1 PUSH1 0xA0 SHL SUB PUSH32 0x0 AND CALLER ADDRESS DUP7 PUSH2 0x13F4 JUMP JUMPDEST CALLER PUSH1 0x0 SWAP1 DUP2 MSTORE PUSH1 0x4 PUSH1 0x20 MSTORE PUSH1 0x40 DUP2 KECCAK256 DUP1 SLOAD DUP6 SWAP3 SWAP1 PUSH2 0x842 SWAP1 DUP5 SWAP1 PUSH2 0x1614 JUMP JUMPDEST SWAP1 SWAP2 SSTORE POP POP CALLER PUSH1 0x0 SWAP1 DUP2 MSTORE PUSH1 0x5 PUSH1 0x20 MSTORE PUSH1 0x40 DUP2 KECCAK256 DUP1 SLOAD DUP6 SWAP3 SWAP1 PUSH2 0x866 SWAP1 DUP5 SWAP1 PUSH2 0x1614 JUMP JUMPDEST SWAP1 SWAP2 SSTORE POP POP PUSH1 0x40 DUP1 MLOAD DUP5 DUP2 MSTORE PUSH1 0x20 DUP2 ADD DUP6 SWAP1 MSTORE CALLER SWAP2 PUSH32 0x5D95162205DC900555172B9649799B0334D5C456A8C9D875524229CD73416D4B SWAP2 ADD PUSH1 0x40 MLOAD DUP1 SWAP2 SUB SWAP1 LOG2 PUSH1 0x0 PUSH2 0x8B3 DUP5 PUSH1 0x0 PUSH2 0xF7C JUMP JUMPDEST SWAP1 POP PUSH2 0x8BF DUP2 DUP6 PUSH2 0x1614 JUMP JUMPDEST SWAP2 POP DUP3 DUP3 LT ISZERO PUSH2 0x8E2 JUMPI PUSH1 0x40 MLOAD PUSH4 0x7DD37F7 PUSH1 0xE4 SHL DUP2 MSTORE PUSH1 0x4 ADD PUSH1 0x40 MLOAD DUP1 SWAP2 SUB SWAP1 REVERT JUMPDEST POP PUSH2 0x77F PUSH1 0x1 DUP1 SSTORE JUMP JUMPDEST PUSH1 0x2 DUP1 SLOAD PUSH2 0x8F9 SWAP1 PUSH2 0x1695 JUMP JUMPDEST DUP1 PUSH1 0x1F ADD PUSH1 0x20 DUP1 SWAP2 DIV MUL PUSH1 0x20 ADD PUSH1 0x40 MLOAD SWAP1 DUP2 ADD PUSH1 0x40 MSTORE DUP1 SWAP3 SWAP2 SWAP1 DUP2 DUP2 MSTORE PUSH1 0x20 ADD DUP3 DUP1 SLOAD PUSH2 0x925 SWAP1 PUSH2 0x1695 JUMP JUMPDEST DUP1 ISZERO PUSH2 0x972 JUMPI DUP1 PUSH1 0x1F LT PUSH2 0x947 JUMPI PUSH2 0x100 DUP1 DUP4 SLOAD DIV MUL DUP4 MSTORE SWAP2 PUSH1 0x20 ADD SWAP2 PUSH2 0x972 JUMP JUMPDEST DUP3 ADD SWAP2 SWAP1 PUSH1 0x0 MSTORE PUSH1 0x20 PUSH1 0x0 KECCAK256 SWAP1 JUMPDEST DUP2 SLOAD DUP2 MSTORE SWAP1 PUSH1 0x1 ADD SWAP1 PUSH1 0x20 ADD DUP1 DUP4 GT PUSH2 0x955 JUMPI DUP3 SWAP1 SUB PUSH1 0x1F AND DUP3 ADD SWAP2 JUMPDEST POP POP POP POP POP DUP2 JUMP JUMPDEST PUSH32 0x0 TIMESTAMP LT PUSH2 0x9B9 JUMPI PUSH1 0x40 MLOAD PUSH3 0xB5F6BF PUSH1 0xE4 SHL DUP2 MSTORE PUSH1 0x4 ADD PUSH1 0x40 MLOAD DUP1 SWAP2 SUB SWAP1 REVERT JUMPDEST PUSH2 0x9C1 PUSH2 0x12BF JUMP JUMPDEST PUSH1 0x0 DUP2 GT PUSH2 0x9E1 JUMPI PUSH1 0x40 MLOAD PUSH3 0x461BCD PUSH1 0xE5 SHL DUP2 MSTORE PUSH1 0x4 ADD PUSH2 0x4AB SWAP1 PUSH2 0x1660 JUMP JUMPDEST PUSH2 0xA16 PUSH1 0x1 PUSH1 0x1 PUSH1 0xA0 SHL SUB PUSH32 0x0 AND CALLER ADDRESS DUP5 PUSH2 0x13F4 JUMP JUMPDEST DUP1 PUSH1 0x6 PUSH1 0x0 DUP3 DUP3 SLOAD PUSH2 0xA28 SWAP2 SWAP1 PUSH2 0x1614 JUMP JUMPDEST SWAP3 POP POP DUP2 SWAP1 SSTORE POP DUP1 PUSH1 0x7 PUSH1 0x0 DUP3 DUP3 SLOAD PUSH2 0xA41 SWAP2 SWAP1 PUSH2 0x1614 JUMP JUMPDEST SWAP1 SWAP2 SSTORE POP POP PUSH1 0x40 DUP1 MLOAD DUP3 DUP2 MSTORE PUSH1 0x20 DUP2 ADD DUP4 SWAP1 MSTORE SWAP1 DUP2 ADD DUP3 SWAP1 MSTORE CALLER SWAP1 PUSH32 0x64B83944E79C3CE8D4C297411DE637C3E102D064677AAC0C163976EBDCD6F50E SWAP1 PUSH1 0x60 ADD PUSH2 0x5AE JUMP JUMPDEST PUSH2 0xA8E PUSH2 0x1433 JUMP JUMPDEST PUSH2 0xA98 PUSH1 0x0 PUSH2 0x1460 JUMP JUMPDEST JUMP JUMPDEST PUSH2 0xAA2 PUSH2 0x1433 JUMP JUMPDEST PUSH2 0xAAA PUSH2 0x12BF JUMP JUMPDEST PUSH1 0x3 SLOAD PUSH1 0xFF AND PUSH2 0xACD JUMPI PUSH1 0x40 MLOAD PUSH4 0x9F4A6489 PUSH1 0xE0 SHL DUP2 MSTORE PUSH1 0x4 ADD PUSH1 0x40 MLOAD DUP1 SWAP2 SUB SWAP1 REVERT JUMPDEST PUSH1 0x1 PUSH1 0x1 PUSH1 0xA0 SHL SUB DUP2 AND PUSH2 0xB0C JUMPI PUSH1 0x40 MLOAD PUSH3 0x461BCD PUSH1 0xE5 SHL DUP2 MSTORE PUSH1 0x4 ADD PUSH2 0x4AB SWAP1 PUSH1 0x20 DUP1 DUP3 MSTORE PUSH1 0x4 SWAP1 DUP3 ADD MSTORE PUSH4 0x746F3D3 PUSH1 0xE4 SHL PUSH1 0x40 DUP3 ADD MSTORE PUSH1 0x60 ADD SWAP1 JUMP JUMPDEST PUSH1 0x3 SLOAD PUSH1 0x0 SWAP1 PUSH1 0x0 NOT PUSH2 0x100 SWAP1 SWAP2 DIV PUSH1 0xFF AND ADD PUSH2 0xB32 JUMPI POP PUSH1 0x6 DUP1 SLOAD PUSH1 0x0 SWAP1 SWAP2 SSTORE PUSH2 0xB3D JUMP JUMPDEST POP PUSH1 0x7 DUP1 SLOAD PUSH1 0x0 SWAP1 SWAP2 SSTORE JUMPDEST PUSH2 0xB71 PUSH1 0x1 PUSH1 0x1 PUSH1 0xA0 SHL SUB PUSH32 0x0 AND DUP4 DUP4 PUSH2 0x12E9 JUMP JUMPDEST PUSH1 0x3 SLOAD PUSH1 0x40 DUP1 MLOAD PUSH2 0x100 SWAP1 SWAP3 DIV PUSH1 0xFF AND DUP3 MSTORE PUSH1 0x20 DUP3 ADD DUP4 SWAP1 MSTORE DUP2 ADD DUP3 SWAP1 MSTORE PUSH1 0x1 PUSH1 0x1 PUSH1 0xA0 SHL SUB DUP4 AND SWAP1 PUSH32 0xFF4BB3A86FACC18D8252E298B6A592B49328E8CFCBE2A80E334FDB4CD273090C SWAP1 PUSH1 0x60 ADD PUSH1 0x40 MLOAD DUP1 SWAP2 SUB SWAP1 LOG2 POP PUSH2 0x5BF PUSH1 0x1 DUP1 SSTORE JUMP JUMPDEST PUSH2 0xBD9 PUSH2 0x1433 JUMP JUMPDEST PUSH1 0x3 SLOAD PUSH1 0xFF AND ISZERO PUSH2 0xBFD JUMPI PUSH1 0x40 MLOAD PUSH4 0x36AB81E1 PUSH1 0xE1 SHL DUP2 MSTORE PUSH1 0x4 ADD PUSH1 0x40 MLOAD DUP1 SWAP2 SUB SWAP1 REVERT JUMPDEST PUSH32 0x0 TIMESTAMP LT ISZERO PUSH2 0xC3D JUMPI PUSH1 0x40 MLOAD PUSH3 0xB5F6BF PUSH1 0xE4 SHL DUP2 MSTORE PUSH1 0x4 ADD PUSH1 0x40 MLOAD DUP1 SWAP2 SUB SWAP1 REVERT JUMPDEST PUSH1 0xFF DUP2 AND ISZERO DUP1 ISZERO SWAP1 PUSH2 0xC53 JUMPI POP PUSH1 0xFF DUP2 AND PUSH1 0x1 EQ ISZERO JUMPDEST ISZERO PUSH2 0xC71 JUMPI PUSH1 0x40 MLOAD PUSH4 0x900D8ABD PUSH1 0xE0 SHL DUP2 MSTORE PUSH1 0x4 ADD PUSH1 0x40 MLOAD DUP1 SWAP2 SUB SWAP1 REVERT JUMPDEST PUSH1 0x3 DUP1 SLOAD PUSH1 0xFF DUP4 AND PUSH2 0x100 MUL PUSH2 0xFFFF NOT SWAP1 SWAP2 AND OR PUSH1 0x1 OR SWAP1 SSTORE PUSH1 0x40 MLOAD PUSH32 0x5E186F09B9C93491F14E277EEA7FAA5DE6A2D4BDA75A79AF7A3684FBFB42DA60 SWAP1 PUSH2 0xCC3 SWAP1 DUP4 SWAP1 PUSH1 0xFF SWAP2 SWAP1 SWAP2 AND DUP2 MSTORE PUSH1 0x20 ADD SWAP1 JUMP JUMPDEST PUSH1 0x40 MLOAD DUP1 SWAP2 SUB SWAP1 LOG1 POP JUMP JUMPDEST PUSH1 0x0 PUSH32 0x0 TIMESTAMP LT PUSH2 0xD0F JUMPI PUSH1 0x40 MLOAD PUSH3 0xB5F6BF PUSH1 0xE4 SHL DUP2 MSTORE PUSH1 0x4 ADD PUSH1 0x40 MLOAD DUP1 SWAP2 SUB SWAP1 REVERT JUMPDEST PUSH2 0xD17 PUSH2 0x12BF JUMP JUMPDEST PUSH1 0x0 DUP4 GT PUSH2 0xD37 JUMPI PUSH1 0x40 MLOAD PUSH3 0x461BCD PUSH1 0xE5 SHL DUP2 MSTORE PUSH1 0x4 ADD PUSH2 0x4AB SWAP1 PUSH2 0x1660 JUMP JUMPDEST PUSH2 0xD6C PUSH1 0x1 PUSH1 0x1 PUSH1 0xA0 SHL SUB PUSH32 0x0 AND CALLER ADDRESS DUP7 PUSH2 0x13F4 JUMP JUMPDEST CALLER PUSH1 0x0 SWAP1 DUP2 MSTORE PUSH1 0x4 PUSH1 0x20 MSTORE PUSH1 0x40 DUP2 KECCAK256 DUP1 SLOAD DUP6 SWAP3 SWAP1 PUSH2 0xD8B SWAP1 DUP5 SWAP1 PUSH2 0x1614 JUMP JUMPDEST SWAP1 SWAP2 SSTORE POP POP CALLER PUSH1 0x0 SWAP1 DUP2 MSTORE PUSH1 0x5 PUSH1 0x20 MSTORE PUSH1 0x40 DUP2 KECCAK256 DUP1 SLOAD DUP6 SWAP3 SWAP1 PUSH2 0xDAF SWAP1 DUP5 SWAP1 PUSH2 0x1614 JUMP JUMPDEST SWAP1 SWAP2 SSTORE POP POP PUSH1 0x40 DUP1 MLOAD DUP5 DUP2 MSTORE PUSH1 0x20 DUP2 ADD DUP6 SWAP1 MSTORE CALLER SWAP2 PUSH32 0x5D95162205DC900555172B9649799B0334D5C456A8C9D875524229CD73416D4B SWAP2 ADD PUSH1 0x40 MLOAD DUP1 SWAP2 SUB SWAP1 LOG2 PUSH1 0x0 PUSH2 0x8B3 DUP5 PUSH1 0x0 PUSH2 0x5C2 JUMP JUMPDEST PUSH2 0xE04 PUSH2 0x12BF JUMP JUMPDEST PUSH1 0x3 SLOAD PUSH1 0xFF AND PUSH2 0xE27 JUMPI PUSH1 0x40 MLOAD PUSH4 0x9F4A6489 PUSH1 0xE0 SHL DUP2 MSTORE PUSH1 0x4 ADD PUSH1 0x40 MLOAD DUP1 SWAP2 SUB SWAP1 REVERT JUMPDEST PUSH1 0x3 SLOAD PUSH1 0x0 SWAP1 PUSH1 0x0 NOT PUSH2 0x100 SWAP1 SWAP2 DIV PUSH1 0xFF AND ADD PUSH2 0xE9A JUMPI POP CALLER PUSH1 0x0 SWAP1 DUP2 MSTORE PUSH1 0x4 PUSH1 0x20 MSTORE PUSH1 0x40 SWAP1 KECCAK256 SLOAD DUP1 PUSH2 0xE85 JUMPI PUSH1 0x40 MLOAD PUSH3 0x461BCD PUSH1 0xE5 SHL DUP2 MSTORE PUSH1 0x20 PUSH1 0x4 DUP3 ADD MSTORE PUSH1 0x6 PUSH1 0x24 DUP3 ADD MSTORE PUSH6 0x6E6F20594553 PUSH1 0xD0 SHL PUSH1 0x44 DUP3 ADD MSTORE PUSH1 0x64 ADD PUSH2 0x4AB JUMP JUMPDEST CALLER PUSH1 0x0 SWAP1 DUP2 MSTORE PUSH1 0x4 PUSH1 0x20 MSTORE PUSH1 0x40 DUP2 KECCAK256 SSTORE PUSH2 0xEF1 JUMP JUMPDEST POP CALLER PUSH1 0x0 SWAP1 DUP2 MSTORE PUSH1 0x5 PUSH1 0x20 MSTORE PUSH1 0x40 SWAP1 KECCAK256 SLOAD DUP1 PUSH2 0xEE0 JUMPI PUSH1 0x40 MLOAD PUSH3 0x461BCD PUSH1 0xE5 SHL DUP2 MSTORE PUSH1 0x20 PUSH1 0x4 DUP3 ADD MSTORE PUSH1 0x5 PUSH1 0x24 DUP3 ADD MSTORE PUSH5 0x6E6F204E4F PUSH1 0xD8 SHL PUSH1 0x44 DUP3 ADD MSTORE PUSH1 0x64 ADD PUSH2 0x4AB JUMP JUMPDEST CALLER PUSH1 0x0 SWAP1 DUP2 MSTORE PUSH1 0x5 PUSH1 0x20 MSTORE PUSH1 0x40 DUP2 KECCAK256 SSTORE JUMPDEST PUSH2 0xF25 PUSH1 0x1 PUSH1 0x1 PUSH1 0xA0 SHL SUB PUSH32 0x0 AND CALLER DUP4 PUSH2 0x12E9 JUMP JUMPDEST PUSH1 0x3 SLOAD PUSH1 0x40 DUP1 MLOAD PUSH2 0x100 SWAP1 SWAP3 DIV PUSH1 0xFF AND DUP3 MSTORE PUSH1 0x20 DUP3 ADD DUP4 SWAP1 MSTORE DUP2 ADD DUP3 SWAP1 MSTORE CALLER SWAP1 PUSH32 0xF8B564B1B7F5BB9FEA632DDF0036474F68D8CEC99F4B2E96A29BE779871E059A SWAP1 PUSH1 0x60 ADD PUSH1 0x40 MLOAD DUP1 SWAP2 SUB SWAP1 LOG2 POP PUSH2 0xA98 PUSH1 0x1 DUP1 SSTORE JUMP JUMPDEST PUSH1 0x0 PUSH32 0x0 TIMESTAMP LT PUSH2 0xFBD JUMPI PUSH1 0x40 MLOAD PUSH3 0xB5F6BF PUSH1 0xE4 SHL DUP2 MSTORE PUSH1 0x4 ADD PUSH1 0x40 MLOAD DUP1 SWAP2 SUB SWAP1 REVERT JUMPDEST PUSH2 0xFC5 PUSH2 0x12BF JUMP JUMPDEST PUSH1 0x0 DUP4 GT PUSH2 0xFE5 JUMPI PUSH1 0x40 MLOAD PUSH3 0x461BCD PUSH1 0xE5 SHL DUP2 MSTORE PUSH1 0x4 ADD PUSH2 0x4AB SWAP1 PUSH2 0x1660 JUMP JUMPDEST CALLER PUSH1 0x0 SWAP1 DUP2 MSTORE PUSH1 0x5 PUSH1 0x20 MSTORE PUSH1 0x40 SWAP1 KECCAK256 SLOAD DUP4 GT ISZERO PUSH2 0x1015 JUMPI PUSH1 0x40 MLOAD PUSH4 0x1E9ACF17 PUSH1 0xE3 SHL DUP2 MSTORE PUSH1 0x4 ADD PUSH1 0x40 MLOAD DUP1 SWAP2 SUB SWAP1 REVERT JUMPDEST PUSH1 0x7 SLOAD ISZERO DUP1 PUSH2 0x1024 JUMPI POP PUSH1 0x6 SLOAD ISZERO JUMPDEST ISZERO PUSH2 0x1042 JUMPI PUSH1 0x40 MLOAD PUSH4 0x4323A555 PUSH1 0xE0 SHL DUP2 MSTORE PUSH1 0x4 ADD PUSH1 0x40 MLOAD DUP1 SWAP2 SUB SWAP1 REVERT JUMPDEST PUSH2 0x1051 DUP4 PUSH1 0x7 SLOAD PUSH1 0x6 SLOAD PUSH2 0x134D JUMP JUMPDEST SWAP1 POP DUP2 DUP2 LT ISZERO PUSH2 0x1074 JUMPI PUSH1 0x40 MLOAD PUSH4 0x7DD37F7 PUSH1 0xE4 SHL DUP2 MSTORE PUSH1 0x4 ADD PUSH1 0x40 MLOAD DUP1 SWAP2 SUB SWAP1 REVERT JUMPDEST CALLER PUSH1 0x0 SWAP1 DUP2 MSTORE PUSH1 0x5 PUSH1 0x20 MSTORE PUSH1 0x40 DUP2 KECCAK256 DUP1 SLOAD DUP6 SWAP3 SWAP1 PUSH2 0x1093 SWAP1 DUP5 SWAP1 PUSH2 0x1682 JUMP JUMPDEST SWAP3 POP POP DUP2 SWAP1 SSTORE POP DUP3 PUSH1 0x7 PUSH1 0x0 DUP3 DUP3 SLOAD PUSH2 0x10AC SWAP2 SWAP1 PUSH2 0x1614 JUMP JUMPDEST SWAP3 POP POP DUP2 SWAP1 SSTORE POP DUP1 PUSH1 0x6 PUSH1 0x0 DUP3 DUP3 SLOAD PUSH2 0x10C5 SWAP2 SWAP1 PUSH2 0x1682 JUMP JUMPDEST SWAP1 SWAP2 SSTORE POP POP CALLER PUSH1 0x0 SWAP1 DUP2 MSTORE PUSH1 0x4 PUSH1 0x20 MSTORE PUSH1 0x40 DUP2 KECCAK256 DUP1 SLOAD DUP4 SWAP3 SWAP1 PUSH2 0x10E9 SWAP1 DUP5 SWAP1 PUSH2 0x1614 JUMP JUMPDEST SWAP1 SWAP2 SSTORE POP POP PUSH1 0x40 DUP1 MLOAD DUP5 DUP2 MSTORE PUSH1 0x20 DUP2 ADD DUP4 SWAP1 MSTORE PUSH1 0x1 SWAP2 PUSH1 0x0 SWAP2 CALLER SWAP2 PUSH32 0xBC32EADE4AE61CE3F740A86BFDD2F6FDABB2C401E6641752B43F515AB1ED7F97 SWAP2 ADD PUSH2 0x76E JUMP JUMPDEST PUSH1 0x0 DUP1 PUSH1 0x7 SLOAD PUSH1 0x6 SLOAD PUSH2 0x113F SWAP2 SWAP1 PUSH2 0x1614 JUMP JUMPDEST SWAP1 POP DUP1 PUSH1 0x0 SUB PUSH2 0x1151 JUMPI PUSH1 0x0 SWAP2 POP POP SWAP1 JUMP JUMPDEST DUP1 PUSH1 0x6 SLOAD PUSH8 0xDE0B6B3A7640000 PUSH2 0x434 SWAP2 SWAP1 PUSH2 0x1627 JUMP JUMPDEST PUSH32 0x0 TIMESTAMP LT PUSH2 0x11A7 JUMPI PUSH1 0x40 MLOAD PUSH3 0xB5F6BF PUSH1 0xE4 SHL DUP2 MSTORE PUSH1 0x4 ADD PUSH1 0x40 MLOAD DUP1 SWAP2 SUB SWAP1 REVERT JUMPDEST PUSH2 0x11AF PUSH2 0x12BF JUMP JUMPDEST PUSH1 0x0 DUP2 GT PUSH2 0x11CF JUMPI PUSH1 0x40 MLOAD PUSH3 0x461BCD PUSH1 0xE5 SHL DUP2 MSTORE PUSH1 0x4 ADD PUSH2 0x4AB SWAP1 PUSH2 0x1660 JUMP JUMPDEST PUSH2 0x1204 PUSH1 0x1 PUSH1 0x1 PUSH1 0xA0 SHL SUB PUSH32 0x0 AND CALLER ADDRESS DUP5 PUSH2 0x13F4 JUMP JUMPDEST CALLER PUSH1 0x0 SWAP1 DUP2 MSTORE PUSH1 0x4 PUSH1 0x20 MSTORE PUSH1 0x40 DUP2 KECCAK256 DUP1 SLOAD DUP4 SWAP3 SWAP1 PUSH2 0x1223 SWAP1 DUP5 SWAP1 PUSH2 0x1614 JUMP JUMPDEST SWAP1 SWAP2 SSTORE POP POP CALLER PUSH1 0x0 SWAP1 DUP2 MSTORE PUSH1 0x5 PUSH1 0x20 MSTORE PUSH1 0x40 DUP2 KECCAK256 DUP1 SLOAD DUP4 SWAP3 SWAP1 PUSH2 0x1247 SWAP1 DUP5 SWAP1 PUSH2 0x1614 JUMP JUMPDEST SWAP1 SWAP2 SSTORE POP POP PUSH1 0x40 DUP1 MLOAD DUP3 DUP2 MSTORE PUSH1 0x20 DUP2 ADD DUP4 SWAP1 MSTORE CALLER SWAP2 PUSH32 0x5D95162205DC900555172B9649799B0334D5C456A8C9D875524229CD73416D4B SWAP2 ADD PUSH2 0x5AE JUMP JUMPDEST PUSH2 0x128C PUSH2 0x1433 JUMP JUMPDEST PUSH1 0x1 PUSH1 0x1 PUSH1 0xA0 SHL SUB DUP2 AND PUSH2 0x12B6 JUMPI PUSH1 0x40 MLOAD PUSH4 0x1E4FBDF7 PUSH1 0xE0 SHL DUP2 MSTORE PUSH1 0x0 PUSH1 0x4 DUP3 ADD MSTORE PUSH1 0x24 ADD PUSH2 0x4AB JUMP JUMPDEST PUSH2 0x5BF DUP2 PUSH2 0x1460 JUMP JUMPDEST PUSH1 0x2 PUSH1 0x1 SLOAD SUB PUSH2 0x12E2 JUMPI PUSH1 0x40 MLOAD PUSH4 0x3EE5AEB5 PUSH1 0xE0 SHL DUP2 MSTORE PUSH1 0x4 ADD PUSH1 0x40 MLOAD DUP1 SWAP2 SUB SWAP1 REVERT JUMPDEST PUSH1 0x2 PUSH1 0x1 SSTORE JUMP JUMPDEST PUSH1 0x40 MLOAD PUSH1 0x1 PUSH1 0x1 PUSH1 0xA0 SHL SUB DUP4 DUP2 AND PUSH1 0x24 DUP4 ADD MSTORE PUSH1 0x44 DUP3 ADD DUP4 SWAP1 MSTORE PUSH2 0x1348 SWAP2 DUP6 SWAP2 DUP3 AND SWAP1 PUSH4 0xA9059CBB SWAP1 PUSH1 0x64 ADD JUMPDEST PUSH1 0x40 MLOAD PUSH1 0x20 DUP2 DUP4 SUB SUB DUP2 MSTORE SWAP1 PUSH1 0x40 MSTORE SWAP2 POP PUSH1 0xE0 SHL PUSH1 0x20 DUP3 ADD DUP1 MLOAD PUSH1 0x1 PUSH1 0x1 PUSH1 0xE0 SHL SUB DUP4 DUP2 DUP4 AND OR DUP4 MSTORE POP POP POP POP PUSH2 0x14B0 JUMP JUMPDEST POP POP POP JUMP JUMPDEST PUSH1 0x0 DUP1 DUP4 GT DUP1 ISZERO PUSH2 0x135E JUMPI POP PUSH1 0x0 DUP3 GT JUMPDEST PUSH2 0x139B JUMPI PUSH1 0x40 MLOAD PUSH3 0x461BCD PUSH1 0xE5 SHL DUP2 MSTORE PUSH1 0x20 PUSH1 0x4 DUP3 ADD MSTORE PUSH1 0xE PUSH1 0x24 DUP3 ADD MSTORE PUSH14 0x656D707479207265736572766573 PUSH1 0x90 SHL PUSH1 0x44 DUP3 ADD MSTORE PUSH1 0x64 ADD PUSH2 0x4AB JUMP JUMPDEST PUSH1 0x0 PUSH2 0x13AA PUSH1 0x1E PUSH2 0x2710 PUSH2 0x1682 JUMP JUMPDEST PUSH2 0x13B4 SWAP1 DUP7 PUSH2 0x1627 JUMP JUMPDEST SWAP1 POP PUSH1 0x0 PUSH2 0x13C2 DUP5 DUP4 PUSH2 0x1627 JUMP JUMPDEST SWAP1 POP PUSH1 0x0 DUP3 PUSH2 0x13D3 PUSH2 0x2710 DUP9 PUSH2 0x1627 JUMP JUMPDEST PUSH2 0x13DD SWAP2 SWAP1 PUSH2 0x1614 JUMP JUMPDEST SWAP1 POP PUSH2 0x13E9 DUP2 DUP4 PUSH2 0x163E JUMP JUMPDEST SWAP8 SWAP7 POP POP POP POP POP POP POP JUMP JUMPDEST PUSH1 0x40 MLOAD PUSH1 0x1 PUSH1 0x1 PUSH1 0xA0 SHL SUB DUP5 DUP2 AND PUSH1 0x24 DUP4 ADD MSTORE DUP4 DUP2 AND PUSH1 0x44 DUP4 ADD MSTORE PUSH1 0x64 DUP3 ADD DUP4 SWAP1 MSTORE PUSH2 0x142D SWAP2 DUP7 SWAP2 DUP3 AND SWAP1 PUSH4 0x23B872DD SWAP1 PUSH1 0x84 ADD PUSH2 0x1316 JUMP JUMPDEST POP POP POP POP JUMP JUMPDEST PUSH1 0x0 SLOAD PUSH1 0x1 PUSH1 0x1 PUSH1 0xA0 SHL SUB AND CALLER EQ PUSH2 0xA98 JUMPI PUSH1 0x40 MLOAD PUSH4 0x118CDAA7 PUSH1 0xE0 SHL DUP2 MSTORE CALLER PUSH1 0x4 DUP3 ADD MSTORE PUSH1 0x24 ADD PUSH2 0x4AB JUMP JUMPDEST PUSH1 0x0 DUP1 SLOAD PUSH1 0x1 PUSH1 0x1 PUSH1 0xA0 SHL SUB DUP4 DUP2 AND PUSH1 0x1 PUSH1 0x1 PUSH1 0xA0 SHL SUB NOT DUP4 AND DUP2 OR DUP5 SSTORE PUSH1 0x40 MLOAD SWAP2 SWAP1 SWAP3 AND SWAP3 DUP4 SWAP2 PUSH32 0x8BE0079C531659141344CD1FD0A4F28419497F9722A3DAAFE3B4186F6B6457E0 SWAP2 SWAP1 LOG3 POP POP JUMP JUMPDEST PUSH1 0x0 DUP1 PUSH1 0x20 PUSH1 0x0 DUP5 MLOAD PUSH1 0x20 DUP7 ADD PUSH1 0x0 DUP9 GAS CALL DUP1 PUSH2 0x14D3 JUMPI PUSH1 0x40 MLOAD RETURNDATASIZE PUSH1 0x0 DUP3 RETURNDATACOPY RETURNDATASIZE DUP2 REVERT JUMPDEST POP POP PUSH1 0x0 MLOAD RETURNDATASIZE SWAP2 POP DUP2 ISZERO PUSH2 0x14EB JUMPI DUP1 PUSH1 0x1 EQ ISZERO PUSH2 0x14F8 JUMP JUMPDEST PUSH1 0x1 PUSH1 0x1 PUSH1 0xA0 SHL SUB DUP5 AND EXTCODESIZE ISZERO JUMPDEST ISZERO PUSH2 0x142D JUMPI PUSH1 0x40 MLOAD PUSH4 0x5274AFE7 PUSH1 0xE0 SHL DUP2 MSTORE PUSH1 0x1 PUSH1 0x1 PUSH1 0xA0 SHL SUB DUP6 AND PUSH1 0x4 DUP3 ADD MSTORE PUSH1 0x24 ADD PUSH2 0x4AB JUMP JUMPDEST PUSH1 0x0 PUSH1 0x20 DUP3 DUP5 SUB SLT ISZERO PUSH2 0x1533 JUMPI PUSH1 0x0 DUP1 REVERT JUMPDEST DUP2 CALLDATALOAD PUSH1 0x1 PUSH1 0x1 PUSH1 0xA0 SHL SUB DUP2 AND DUP2 EQ PUSH2 0x154A JUMPI PUSH1 0x0 DUP1 REVERT JUMPDEST SWAP4 SWAP3 POP POP POP JUMP JUMPDEST PUSH1 0x0 PUSH1 0x20 DUP3 DUP5 SUB SLT ISZERO PUSH2 0x1563 JUMPI PUSH1 0x0 DUP1 REVERT JUMPDEST POP CALLDATALOAD SWAP2 SWAP1 POP JUMP JUMPDEST PUSH1 0x0 DUP1 PUSH1 0x40 DUP4 DUP6 SUB SLT ISZERO PUSH2 0x157D JUMPI PUSH1 0x0 DUP1 REVERT JUMPDEST POP POP DUP1 CALLDATALOAD SWAP3 PUSH1 0x20 SWAP1 SWAP2 ADD CALLDATALOAD SWAP2 POP JUMP JUMPDEST PUSH1 0x0 PUSH1 0x20 DUP1 DUP4 MSTORE DUP4 MLOAD DUP1 PUSH1 0x20 DUP6 ADD MSTORE PUSH1 0x0 JUMPDEST DUP2 DUP2 LT ISZERO PUSH2 0x15BA JUMPI DUP6 DUP2 ADD DUP4 ADD MLOAD DUP6 DUP3 ADD PUSH1 0x40 ADD MSTORE DUP3 ADD PUSH2 0x159E JUMP JUMPDEST POP PUSH1 0x0 PUSH1 0x40 DUP3 DUP7 ADD ADD MSTORE PUSH1 0x40 PUSH1 0x1F NOT PUSH1 0x1F DUP4 ADD AND DUP6 ADD ADD SWAP3 POP POP POP SWAP3 SWAP2 POP POP JUMP JUMPDEST PUSH1 0x0 PUSH1 0x20 DUP3 DUP5 SUB SLT ISZERO PUSH2 0x15ED JUMPI PUSH1 0x0 DUP1 REVERT JUMPDEST DUP2 CALLDATALOAD PUSH1 0xFF DUP2 AND DUP2 EQ PUSH2 0x154A JUMPI PUSH1 0x0 DUP1 REVERT JUMPDEST PUSH4 0x4E487B71 PUSH1 0xE0 SHL PUSH1 0x0 MSTORE PUSH1 0x11 PUSH1 0x4 MSTORE PUSH1 0x24 PUSH1 0x0 REVERT JUMPDEST DUP1 DUP3 ADD DUP1 DUP3 GT ISZERO PUSH2 0x77F JUMPI PUSH2 0x77F PUSH2 0x15FE JUMP JUMPDEST DUP1 DUP3 MUL DUP2 ISZERO DUP3 DUP3 DIV DUP5 EQ OR PUSH2 0x77F JUMPI PUSH2 0x77F PUSH2 0x15FE JUMP JUMPDEST PUSH1 0x0 DUP3 PUSH2 0x165B JUMPI PUSH4 0x4E487B71 PUSH1 0xE0 SHL PUSH1 0x0 MSTORE PUSH1 0x12 PUSH1 0x4 MSTORE PUSH1 0x24 PUSH1 0x0 REVERT JUMPDEST POP DIV SWAP1 JUMP JUMPDEST PUSH1 0x20 DUP1 DUP3 MSTORE PUSH1 0x8 SWAP1 DUP3 ADD MSTORE PUSH8 0x616D6F756E743D3 PUSH1 0xC4 SHL PUSH1 0x40 DUP3 ADD MSTORE PUSH1 0x60 ADD SWAP1 JUMP JUMPDEST DUP2 DUP2 SUB DUP2 DUP2 GT ISZERO PUSH2 0x77F JUMPI PUSH2 0x77F PUSH2 0x15FE JUMP JUMPDEST PUSH1 0x1 DUP2 DUP2 SHR SWAP1 DUP3 AND DUP1 PUSH2 0x16A9 JUMPI PUSH1 0x7F DUP3 AND SWAP2 POP JUMPDEST PUSH1 0x20 DUP3 LT DUP2 SUB PUSH2 0x16C9 JUMPI PUSH4 0x4E487B71 PUSH1 0xE0 SHL PUSH1 0x0 MSTORE PUSH1 0x22 PUSH1 0x4 MSTORE PUSH1 0x24 PUSH1 0x0 REVERT JUMPDEST POP SWAP2 SWAP1 POP JUMP INVALID LOG2 PUSH5 0x6970667358 0x22 SLT KECCAK256 0xE0 0xEB SHL 0xC 0xD9 0xBD 0xE4 GT PUSH28 0xCFDCC3801AA1B8256ED48A098532837F6F80067233F0964736F6C63 NUMBER STOP ADDMOD XOR STOP CALLER "},"methodIdentifiers":{"BPS()":"249d39e9","FEE_BPS()":"bf333f2c","OUTCOME_NO()":"5db52051","OUTCOME_YES()":"40db650f","addLiquidity(uint256)":"51c6590a","buyNo(uint256,uint256)":"a9f6b058","buyYes(uint256,uint256)":"399af502","closeTime()":"627749e6","collateral()":"d8dfeb45","getSpotPriceNoE18()":"d4ecc499","getSpotPriceYesE18()":"17081478","merge(uint256)":"24a47aeb","noBalance(address)":"0ffa9bed","noReserve()":"72a9fa6e","owner()":"8da5cb5b","question()":"3fad9ae0","redeem()":"be040fb0","redeemPool(address)":"8821559d","renounceOwnership()":"715018a6","resolve(uint8)":"a0270dbc","resolved()":"3f6fa655","split(uint256)":"dbceb005","swapNoForYes(uint256,uint256)":"cd912374","swapYesForNo(uint256,uint256)":"28563a66","transferOwnership(address)":"f2fde38b","winningOutcome()":"9b34ae03","yesBalance(address)":"5b883917","yesReserve()":"b2670d74"}}}}}